:020000040800F2
:10000000002800207D0B0008210B0008270B0008AA
:100010002D0B0008330B0008390B0008000000000E
:100020000000000000000000000000003F0B00087E
:100030004B0B000800000000570B0008630B000882
:10004000C50B0008C50B0008C50B0008C50B000850
:10005000C50B0008C50B0008C50B0008C50B000840
:10006000C50B0008C50B0008C50B0008C50B000830
:10007000C50B0008C50B0008C50B0008C50B000820
:10008000C50B0008C50B0008C50B0008C50B000810
:10009000C50B0008C50B0008C50B0008C50B000800
:1000A000C50B0008C50B0008C50B0008C50B0008F0
:1000B000C50B0008C50B000800000000C50B0008B8
:1000C000C50B00080000000000000000C50B000880
:1000D00000000000C50B0008C50B00080000000070
:1000E000C50B0008C50B0008C50B00080000000088
:1000F0000000000000000000000000000000000000
:0C01000000000000000000005FF808F1A3
:10010C0010B5054C237833B9044B13B10448AFF345
:10011C0000800123237010BD0C00002000000000A3
:10012C00E819000808B5034B1BB103490348AFF3AA
:10013C00008008BD0000000010000020E819000835
:10014C0080B582B000AF78607B68002B22D1002292
:10015C000121BD4801F016F800220221BA4801F035
:10016C0011F800220421B84801F00CF800220821F3
:10017C00B54801F007F800221021B34801F002F84D
:10018C0000222021B04800F0FDFF01224021AE48A2
:10019C0000F0F8FF7B68012B22D101220121AA4833
:1001AC0000F0F0FF00220221A74800F0EBFF002234
:1001BC000421A54800F0E6FF01220821A24800F026
:1001CC00E1FF01221021A04800F0DCFF01222021D8
:1001DC009D4800F0D7FF012240219B4800F0D2FF40
:1001EC007B68022B22D100220121974800F0CAFF24
:1001FC0000220221944800F0C5FF012204219248FC
:10020C0000F0C0FF002208218F4800F0BBFF002245
:10021C0010218D4800F0B6FF012220218A4800F001
:10022C00B1FF00224021884800F0ACFF7B68032B13
:10023C0022D100220121844800F0A4FF00220221D7
:10024C00814800F09FFF002204217F4800F09AFFB4
:10025C00002208217C4800F095FF012210217A48E9
:10026C0000F090FF01222021774800F08BFF002244
:10027C004021754800F086FF7B68042B22D10122B7
:10028C000121714800F07EFF002202216E4800F02F
:10029C0079FF002204216C4800F074FF0122082130
:1002AC00694800F06FFF01221021674800F06AFFD7
:1002BC0000222021644800F065FF002240216248A2
:1002CC0000F060FF7B68052B22D1002201215E48E3
:1002DC0000F058FF012202215B4800F053FF00227E
:1002EC000421594800F04EFF00220821564800F026
:1002FC0049FF01221021544800F044FF0022202124
:10030C00514800F03FFF002240214F4800F03AFFD7
:10031C007B68062B22D1002201214B4800F032FFD2
:10032C0001220221484800F02DFF002204214648FA
:10033C0000F028FF00220821434800F023FF002290
:10034C001021414800F01EFF002220213E4800F001
:10035C0019FF002240213C4800F014FF7B68072B5A
:10036C0022D100220121384800F00CFF002202218A
:10037C00354800F007FF00220421334800F002FF4B
:10038C0001220821304800F0FDFE012210212E48E8
:10039C0000F0F8FE012220212B4800F0F3FE012290
:1003AC004021294800F0EEFE7B68082B22D1002268
:1003BC000121254800F0E6FE00220221224800F02F
:1003CC00E1FE00220421204800F0DCFE002208217E
:1003DC001D4800F0D7FE002210211B4800F0D2FE71
:1003EC0000222021184800F0CDFE002240211648A2
:1003FC0000F0C8FE7B68092B22D100220121124893
:10040C0000F0C0FE002202210F4800F0BBFE0022CB
:10041C0004210D4800F0B6FE002208210A4800F025
:10042C00B1FE01221021084800F0ACFE0022202170
:10043C00054800F0A7FE00224021034800F0A2FE70
:10044C0000BF0837BD4680BD000C014080B582B0AE
:10045C0000AF78607B68002B28D100228021D24825
:10046C0000F090FE00224FF48071CF4800F08AFE1D
:10047C0000224FF40071CC4800F084FE00224FF4AF
:10048C008061C94800F07EFE00224FF40061C6482E
:10049C0000F078FE00224FF48051C34800F072FE49
:1004AC0001224FF40051C04800F06CFE7B68012B18
:1004BC0028D101228021BC4800F064FE00224FF4B8
:1004CC008071B94800F05EFE00224FF40071B6480E
:1004DC0000F058FE01224FF48061B34800F052FE48
:1004EC0001224FF40061B04800F04CFE01224FF4A1
:1004FC008051AD4800F046FE01224FF40051AA484D
:10050C0000F040FE7B68022B28D100228021A648F7
:10051C0000F038FE00224FF48071A34800F032FE48
:10052C0001224FF40071A04800F02CFE00224FF481
:10053C0080619D4800F026FE00224FF400619A482D
:10054C0000F020FE01224FF48051974800F01AFE73
:10055C0000224FF40051944800F014FE7B68032BEA
:10056C0028D100228021904800F00CFE00224FF48C
:10057C0080718D4800F006FE00224FF400718A480D
:10058C0000F000FE00224FF48061874800F0FAFD75
:10059C0001224FF40061844800F0F4FD01224FF475
:1005AC008051814800F0EEFD00224FF400517E484E
:1005BC0000F0E8FD7B68042B28D1012280217A48C9
:1005CC0000F0E0FD00224FF48071774800F0DAFD76
:1005DC0000224FF40071744800F0D4FD01224FF456
:1005EC008061714800F0CEFD01224FF400616E482D
:1005FC0000F0C8FD00224FF480516B4800F0C2FDA2
:10060C0000224FF40051684800F0BCFD7B68052BBC
:10061C0028D100228021644800F0B4FD01224FF45F
:10062C008071614800F0AEFD00224FF400715E480D
:10063C0000F0A8FD00224FF480615B4800F0A2FDA1
:10064C0001224FF40061584800F09CFD00224FF449
:10065C008051554800F096FD00224FF4005152484D
:10066C0000F090FD7B68062B28D1002280214E489B
:10067C0000F088FD01224FF480714B4800F082FDA0
:10068C0000224FF40071484800F07CFD00224FF42A
:10069C008061454800F076FD00224FF4006142482D
:1006AC0000F070FD00224FF480513F4800F06AFDCD
:1006BC0000224FF400513C4800F064FD7B68072B8E
:1006CC0028D100228021384800F05CFD00224FF434
:1006DC008071354800F056FD00224FF4007132480D
:1006EC0000F050FD01224FF480612F4800F04AFDCC
:1006FC0001224FF400612C4800F044FD01224FF41C
:10070C008051294800F03EFD01224FF4005126484B
:10071C0000F038FD7B68082B28D10022802122486C
:10072C0000F030FD00224FF480711F4800F02AFDCC
:10073C0000224FF400711C4800F024FD00224FF4FD
:10074C008061194800F01EFD00224FF4006116482C
:10075C0000F018FD00224FF48051134800F012FDF8
:10076C0000224FF40051104800F00CFD7B68092B5F
:10077C002BD1002280210C4800F004FD00224FF404
:10078C008071094800F0FEFC00224FF4007106480D
:10079C0000F0F8FC00224FF48061034800F0F2FCFA
:1007AC0001224FF4006101E0000C0140094800F007
:1007BC00E9FC00224FF48051064800F0E3FC0022D3
:1007CC004FF40051034800F0DDFC00BF0837BD4674
:1007DC0080BD00BF000C014080B586B000AF00F0BA
:1007EC00EDF900F0CDF800F007F905237B6100234B
:1007FC003B610023FB600023BB6000237B60032371
:10080C003B60012220215D4800F0BCFC012240210C
:10081C005A4800F0B7FC01228021584800F0B2FC85
:10082C0001224FF48071554800F0ACFC01224FF4CA
:10083C000071524800F0A6FC01224FF480614F4831
:10084C0000F0A0FC7B69002B49DD01224FF4807184
:10085C004A4800F097FC01224021484800F092FCE5
:10086C007869FFF76DFC7B69013B7B6100222021DD
:10087C00424800F087FC3B68002B0AD17B68002BB8
:10088C0007D102237B6001224FF480613B4800F0CA
:10089C0079FC7B68002B0BDD7868FFF7D7FD7B6854
:1008AC00013B7B6000224FF40071344800F06AFC7D
:1008BC003B68002B0BDD3868FFF7C8FD3B68013B3C
:1008CC003B6000224FF480612C4800F05BFC7B699C
:1008DC00002B4ED10323FB600523BB6049E0BB68B2
:1008EC00002B46DD01222021244800F04BFC012284
:1008FC004FF40071214800F045FCB868FFF7A6FDE5
:10090C00BB68013BBB6000224FF480711B4800F0B8
:10091C0039FCFB68002B09D13B69002B06D1022363
:10092C003B6101228021154800F02CFC3B69002B17
:10093C000ADD3869FFF704FC3B69013B3B6100228F
:10094C0040210E4800F01EFCFB68002B0ADDF86805
:10095C00FFF7F6FBFB68013BFB6000228021074898
:10096C0000F010FCBB68002B03D103233B60052374
:10097C007B614FF47A7000F083F963E70008014063
:10098C0080B590B000AF07F118032822002118465B
:10099C0001F01CF83B1D00221A605A609A60DA6064
:1009AC001A610223BB610123BB621023FB6200238B
:1009BC007B6307F11803184600F0FCFB0346002B81
:1009CC0001D000F06FF80F237B600023BB60002385
:1009DC00FB6000233B6100237B613B1D002118461B
:1009EC0000F068FE0346002B01D000F05BF800BF5E
:1009FC004037BD4680BD000080B586B000AF07F122
:100A0C00080300221A605A609A60DA60224B9B69D4
:100A1C00214A43F0040393611F4B9B6903F00403C9
:100A2C007B607B681C4B9B691B4A43F008039361FA
:100A3C00194B9B6903F008033B603B6800224FF4A1
:100A4C00FC61164800F09EFB002243F6FF7114482F
:100A5C0000F098FB4FF4FC63BB600123FB600023A8
:100A6C003B6102237B6107F1080319460B4800F038
:100A7C000FFA43F6FF73BB600123FB6000233B615D
:100A8C0002237B6107F108031946054800F000FAC0
:100A9C0000BF1837BD4680BD001002400008014061
:100AAC00000C014080B400AF72B600BFFEE700003E
:100ABC0080B485B000AF154B9B69144A43F0010319
:100ACC009361124B9B6903F00103BB60BB680F4B36
:100ADC00DB690E4A43F08053D3610C4BDB6903F0A6
:100AEC0080537B607B680A4B5B68FB60FB6823F080
:100AFC00E063FB60FB6843F08063FB60044AFB68C7
:100B0C00536000BF1437BD4680BC704700100240D4
:100B1C000000014080B400AFFEE780B400AFFEE7F8
:100B2C0080B400AFFEE780B400AFFEE780B400AF46
:100B3C00FEE780B400AF00BFBD4680BC704780B4F8
:100B4C0000AF00BFBD4680BC704780B400AF00BF93
:100B5C00BD4680BC704780B500AF00F075F800BF93
:100B6C0080BD80B400AF00BFBD4680BC70470000A4
:100B7C000C480D490D4A002302E0D458C4500433EC
:100B8C00C4188C42F9D30A4A0A4C002301E01360C2
:100B9C000432A242FBD3FFF7E4FF00F0F3FEFFF7B1
:100BAC001BFE7047000000200C000020281A0008D3
:100BBC000C0000202C000020FEE7000080B500AFE8
:100BCC00084B1B68074A43F010031360032000F026
:100BDC002BF90F2000F008F8FFF76AFF00231846E6
:100BEC0080BD00BF0020024080B582B000AF7860AD
:100BFC00124B1A68124B1B7819464FF47A73B3FBDD
:100C0C00F1F3B2FBF3F3184600F035F90346002B71
:100C1C0001D001230EE07B680F2B0AD800227968E3
:100C2C004FF0FF3000F00BF9064A7B68136000238D
:100C3C0000E0012318460837BD4680BD00000020A7
:100C4C00080000200400002080B400AF054B1B7886
:100C5C001A46054B1B681344034A136000BFBD467C
:100C6C0080BC7047080000202800002080B400AF32
:100C7C00024B1B681846BD4680BC704728000020FC
:100C8C0080B584B000AF7860FFF7F0FFB8607B6888
:100C9C00FB60FB68B3F1FF3F05D00A4B1B781A468B
:100CAC00FB681344FB6000BFFFF7E0FF0246BB6824
:100CBC00D31AFA689A42F7D800BF00BF1037BD4666
:100CCC0080BD00BF0800002080B485B000AF786004
:100CDC007B6803F00703FB600C4BDB68BB60BA68F6
:100CEC004FF6FF031340BB60FB681A02BB6813434B
:100CFC0043F0BF6343F40033BB60044ABB68D3606A
:100D0C0000BF1437BD4680BC704700BF00ED00E04B
:100D1C0080B400AF044BDB681B0A03F007031846D2
:100D2C00BD4680BC704700BF00ED00E080B483B0CE
:100D3C0000AF03463960FB7197F90730002B0ADBD3
:100D4C003B68DAB20C4997F907301201D2B20B4466
:100D5C0083F800230AE03B68DAB20849FB7903F018
:100D6C000F03043B1201D2B20B441A7600BF0C37AE
:100D7C00BD4680BC704700BF00E100E000ED00E024
:100D8C0080B489B000AFF860B9607A60FB6803F09A
:100D9C000703FB61FB69C3F10703042B28BF042382
:100DAC00BB61FB690433062B02D9FB69033B00E0F2
:100DBC0000237B614FF0FF32BB6902FA03F3DA4385
:100DCC00BB681A407B699A404FF0FF317B6901FA8E
:100DDC0003F3D9437B680B40134318462437BD46B5
:100DEC0080BC704780B582B000AF78607B68013BF7
:100DFC00B3F1807F01D301230FE00A4A7B68013BEA
:100E0C0053600F214FF0FF30FFF790FF054B00228E
:100E1C009A60044B07221A60002318460837BD4617
:100E2C0080BD00BF10E000E080B582B000AF7860FC
:100E3C007868FFF749FF00BF0837BD4680BD80B515
:100E4C0086B000AF0346B9607A60FB7300237B6108
:100E5C00FFF75EFF78617A68B9687869FFF790FFF1
:100E6C00024697F90F3011461846FFF75FFF00BF97
:100E7C001837BD4680BD80B582B000AF7860786809
:100E8C00FFF7B0FF034618460837BD4680BD00008B
:100E9C0080B48BB000AF7860396000237B62002394
:100EAC003B6248E101227B6A02FA03F3FB613B6877
:100EBC001B68FA691340BB61BA69FB699A4240F03E
:100ECC0037813B685B68A34A93425ED0A14A934248
:100EDC0075D8A14A934258D09F4A93426FD89F4AE3
:100EEC00934252D09D4A934269D89D4A93424CD02A
:100EFC009B4A934263D89B4A934246D0994A934269
:100F0C005DD8122B2AD8122B59D801A252F823F0F3
:100F1C00970F0008710F0008830F0008C50F000819
:100F2C00CB0F0008CB0F0008CB0F0008CB0F00082D
:100F3C00CB0F0008CB0F0008CB0F0008CB0F00081D
:100F4C00CB0F0008CB0F0008CB0F0008CB0F00080D
:100F5C00CB0F0008790F00088D0F0008824A9342CE
:100F6C0013D02CE03B68DB683B6229E03B68DB6814
:100F7C0004333B6224E03B68DB6808333B621FE0D0
:100F8C003B68DB680C333B621AE03B689B68002BC8
:100F9C0002D104233B6213E03B689B68012B05D113
:100FAC0008233B627B68FA691A6109E008233B62FB
:100FBC007B68FA695A6103E000233B6200E000BFE2
:100FCC00BB69FF2B01D87B6801E07B6804337B6134
:100FDC00BB69FF2B02D87B6A9B0002E07B6A083B53
:100FEC009B003B617B691A680F213B6901FA03F393
:100FFC00DB431A40396A3B6901FA03F31A437B69F4
:10100C001A603B685B6803F08053002B00F0908003
:10101C00564B9B69554A43F001039361534B9B69B3
:10102C0003F00103BB60BB68514A7B6A9B08023327
:10103C0052F82330FB607B6A03F003039B000F2202
:10104C0002FA03F3DB43FA681340FB607B68494AFE
:10105C0093420DD07B68484A934207D07B68474A3D
:10106C00934201D1022304E0032302E0012300E0B8
:10107C0000237A6A02F0030292009340FA68134349
:10108C00FB603B497B6A9B080233FA6841F82320DA
:10109C003B685B6803F48033002B06D0384B1A682E
:1010AC003749BB6913430B6006E0354B1A68BB69C3
:1010BC00DB43334913400B603B685B6803F400333C
:1010CC00002B06D02E4B5A682D49BB6913434B603D
:1010DC0006E02B4B5A68BB69DB43294913404B6034
:1010EC003B685B6803F48013002B06D0244B9A6892
:1010FC002349BB6913438B6006E0214B9A68BB699B
:10110C00DB431F4913408B603B685B6803F400139F
:10111C00002B06D01A4BDA681949BB691343CB6014
:10112C0006E0174BDA68BB69DB4315491340CB600B
:10113C007B6A01337B623B681A687B6A22FA03F391
:10114C00002B7FF4AFAE00BF00BF2C37BD4680BC78
:10115C00704700BF00003210000031100000221058
:10116C0000002110000012100000111000100240AD
:10117C000000014000080140000C0140001001403B
:10118C000004014080B483B000AF78600B467B80D4
:10119C0013467B707B78002B03D07A887B681A61AE
:1011AC0003E07B881A047B681A6100BF0C37BD46CC
:1011BC0080BC704780B586B000AF78607B68002B30
:1011CC0001D101236CE27B681B6803F00103002B47
:1011DC0000F08780924B5B6803F00C03042B0CD05F
:1011EC008F4B5B6803F00C03082B12D18C4B5B68A4
:1011FC0003F48033B3F5803F0BD1894B1B6803F4A8
:10120C000033002B6CD07B685B68002B68D101230A
:10121C0046E27B685B68B3F5803F06D1804B1B6868
:10122C007F4A43F4803313602EE07B685B68002BAD
:10123C000CD17B4B1B687A4A23F480331360784BB8
:10124C001B68774A23F4802313601DE07B685B687E
:10125C00B3F5A02F0CD1724B1B68714A43F4802359
:10126C0013606F4B1B686E4A43F4803313600BE0C2
:10127C006B4B1B686A4A23F480331360684B1B6802
:10128C00674A23F4802313607B685B68002B13D0C0
:10129C00FFF7ECFC386108E0FFF7E8FC02463B691D
:1012AC00D31A642B01D90323FAE15D4B1B6803F4B9
:1012BC000033002BF0D014E0FFF7D8FC386108E0C5
:1012CC00FFF7D4FC02463B69D31A642B01D90323E4
:1012DC00E6E1534B1B6803F40033002BF0D100E024
:1012EC0000BF7B681B6803F00203002B63D04C4BE0
:1012FC005B6803F00C03002B0BD0494B5B6803F0CD
:10130C000C03082B1CD1464B5B6803F48033002B79
:10131C0016D1434B1B6803F00203002B05D07B68EE
:10132C001B69012B01D00123BAE13D4B1B6823F053
:10133C00F8027B685B69DB00394913430B603AE0C8
:10134C007B681B69002B20D0364B01221A60FFF7FB
:10135C008DFC386108E0FFF789FC02463B69D31A23
:10136C00022B01D903239BE12D4B1B6803F00203D5
:10137C00002BF0D02A4B1B6823F0F8027B685B69CA
:10138C00DB00274913430B6015E0264B00221A6043
:10139C00FFF76CFC386108E0FFF768FC02463B691C
:1013AC00D31A022B01D903237AE11D4B1B6803F0DE
:1013BC000203002BF0D17B681B6803F00803002BA1
:1013CC003AD07B689B69002B19D0174B01221A600D
:1013DC00FFF74CFC386108E0FFF748FC02463B691C
:1013EC00D31A022B01D903235AE10D4B5B6A03F08C
:1013FC000203002BF0D0012000F0A6FA1CE00A4BEF
:10140C0000221A60FFF732FC38610FE0FFF72EFC68
:10141C0002463B69D31A022B08D9032340E100BFD3
:10142C000010024000004242800442429E4B5B6A24
:10143C0003F00203002BE9D17B681B6803F0040363
:10144C00002B00F0A6800023FB75974BDB6903F0A3
:10145C008053002B0DD1944BDB69934A43F080539E
:10146C00D361914BDB6903F08053BB60BB680123F4
:10147C00FB758E4B1B6803F48073002B18D18B4BC0
:10148C001B688A4A43F480731360FFF7EFFB3861E3
:10149C0008E0FFF7EBFB02463B69D31A642B01D93A
:1014AC000323FDE0814B1B6803F48073002BF0D009
:1014BC007B68DB68012B06D17B4B1B6A7A4A43F0B5
:1014CC00010313622DE07B68DB68002B0CD1764B9B
:1014DC001B6A754A23F001031362734B1B6A724A31
:1014EC0023F0040313621CE07B68DB68052B0CD132
:1014FC006D4B1B6A6C4A43F0040313626A4B1B6A04
:10150C00694A43F0010313620BE0674B1B6A664A9E
:10151C0023F001031362644B1B6A634A23F0040338
:10152C0013627B68DB68002B15D0FFF79FFB3861DB
:10153C000AE0FFF79BFB02463B69D31A41F2883263
:10154C00934201D90323ABE0574B1B6A03F0020310
:10155C00002BEED014E0FFF789FB38610AE0FFF7AF
:10156C0085FB02463B69D31A41F28832934201D97A
:10157C00032395E04C4B1B6A03F00203002BEED1C6
:10158C00FB7D012B05D1484BDB69474A23F0805387
:10159C00D3617B68DB69002B00F08180424B5B6878
:1015AC0003F00C03082B61D07B68DB69022B46D15E
:1015BC003F4B00221A60FFF759FB386108E0FFF738
:1015CC0055FB02463B69D31A022B01D9032367E072
:1015DC00354B1B6803F00073002BF0D17B681B6A42
:1015EC00B3F5803F08D1304B5B6823F400327B6845
:1015FC009B682D4913434B602B4B5B6823F474128F
:10160C007B68196A7B685B6A0B43274913434B6001
:10161C00274B01221A60FFF729FB386108E0FFF71E
:10162C0025FB02463B69D31A022B01D9032337E071
:10163C001D4B1B6803F00073002BF0D02FE01C4BEC
:10164C0000221A60FFF712FB386108E0FFF70EFB6F
:10165C0002463B69D31A022B01D9032320E0124B1B
:10166C001B6803F00073002BF0D118E07B68DB697A
:10167C00012B01D1012313E00B4B5B68FB60FB6872
:10168C0003F480327B681B6A9A4206D1FB6803F430
:10169C0070127B685B6A9A4201D0012300E0002340
:1016AC0018461837BD4680BD00100240007000403F
:1016BC006000424280B584B000AF786039607B68CE
:1016CC00002B01D10123D0E06A4B1B6803F0070308
:1016DC003A689A4210D9674B1B6823F00702654998
:1016EC003B6813430B60634B1B6803F007033A68BA
:1016FC009A4201D00123B8E07B681B6803F0020317
:10170C00002B20D07B681B6803F00403002B05D052
:10171C00594B5B68584A43F4E06353607B681B6821
:10172C0003F00803002B05D0534B5B68524A43F47B
:10173C0060535360504B5B6823F0F0027B689B68EE
:10174C004D4913434B607B681B6803F00103002B6E
:10175C0040D07B685B68012B07D1474B1B6803F4B7
:10176C000033002B15D101237FE07B685B68022BD3
:10177C0007D1414B1B6803F00073002B09D10123E7
:10178C0073E03D4B1B6803F00203002B01D10123D6
:10179C006BE0394B5B6823F003027B685B6836496E
:1017AC0013434B60FFF762FAF8600AE0FFF75EFA4A
:1017BC000246FB68D31A41F28832934201D90323C3
:1017CC0053E02D4B5B6803F00C027B685B689B005D
:1017DC009A42EBD1274B1B6803F007033A689A42F5
:1017EC0010D2244B1B6823F0070222493B68134399
:1017FC000B60204B1B6803F007033A689A4201D038
:10180C00012332E07B681B6803F00403002B08D033
:10181C00194B5B6823F4E0627B68DB681649134361
:10182C004B607B681B6803F00803002B09D0124B3C
:10183C005B6823F460527B681B69DB000E49134321
:10184C004B6000F021F802460B4B5B681B0903F060
:10185C000F030A49CB5C22FA03F3094A1360094BC4
:10186C001B681846FFF7C0F9002318461037BD4611
:10187C0080BD00BF0020024000100240101A00087A
:10188C00000000200400002090B48AB000AF2A4B66
:10189C003C1D0FCB84E80F0040F201233B8000235A
:1018AC00FB610023BB6100237B6200237B6100236F
:1018BC003B62224B5B68FB61FB6903F00C03042B5E
:1018CC0002D0082B03D02DE01D4B3B622DE0FB69B1
:1018DC009B0C03F00F0307F12802134413F8243C6C
:1018EC007B61FB6903F48033002B13D0134B5B68D3
:1018FC005B0C03F0010307F12802134413F8283C96
:10190C00BB617B690E4A02FB03F2BB69B2FBF3F3CA
:10191C007B6204E07B690B4A02FB03F37B627B6A0C
:10192C003B6202E0064B3B6200BF3B6A184628371D
:10193C00BD4690BC704700BF001A00080010024062
:10194C0000127A0000093D0080B485B000AF7860C9
:10195C000A4B1B680A4AA2FB03235B0A7A6802FB48
:10196C0003F3FB6000BFFB685A1EFA60002BF9D131
:10197C0000BF00BF1437BD4680BC7047000000207C
:10198C00D34D621070B500260C4D0D4C641BA41089
:10199C00A64209D100F022F800260A4D0A4C641B1D
:1019AC00A410A64205D170BD55F8043B98470136EA
:1019BC00EEE755F8043B98470136F2E7201A000889
:1019CC00201A0008201A0008241A000803460244B2
:1019DC00934200D1704703F8011BF9E7F8B500BF3B
:1019EC00F8BC08BC9E467047F8B500BFF8BC08BCF4
:0419FC009E4670474C
:101A000002030405060708090A0B0C0D0E0F10103F
:101A1000000000000000000001020304060708099E
:041A20003101000888
:041A24000D010008A8
:0C1A28000024F400100000000100000089
:0400000508000B7D67
:00000001FF
